{
  "contractName": "MyPrize",
  "abi": [
    {
      "inputs": [],
      "stateMutability": "nonpayable",
      "type": "constructor"
    },
    {
      "inputs": [
        {
          "internalType": "uint256",
          "name": "",
          "type": "uint256"
        }
      ],
      "name": "prizes",
      "outputs": [
        {
          "internalType": "uint256",
          "name": "id",
          "type": "uint256"
        },
        {
          "internalType": "address",
          "name": "owner",
          "type": "address"
        },
        {
          "internalType": "bytes10",
          "name": "geohash",
          "type": "bytes10"
        },
        {
          "internalType": "string",
          "name": "metadata",
          "type": "string"
        },
        {
          "internalType": "uint256",
          "name": "placedAt",
          "type": "uint256"
        }
      ],
      "stateMutability": "view",
      "type": "function"
    },
    {
      "inputs": [
        {
          "internalType": "uint256",
          "name": "prizeId",
          "type": "uint256"
        },
        {
          "internalType": "bytes10",
          "name": "geohash",
          "type": "bytes10"
        },
        {
          "internalType": "string",
          "name": "_metadata",
          "type": "string"
        }
      ],
      "name": "placePrize",
      "outputs": [],
      "stateMutability": "nonpayable",
      "type": "function"
    },
    {
      "inputs": [
        {
          "internalType": "uint256",
          "name": "prizeId",
          "type": "uint256"
        },
        {
          "internalType": "bytes10",
          "name": "geohash",
          "type": "bytes10"
        }
      ],
      "name": "claimPrize",
      "outputs": [],
      "stateMutability": "nonpayable",
      "type": "function"
    }
  ],
  "bytecode": "0x60806040523480156200001157600080fd5b506000600190505b600a81116200015e5760006040518060a001604052808381526020013373ffffffffffffffffffffffffffffffffffffffff168152602001600075ffffffffffffffffffffffffffffffffffffffffffff1916815260200160405180602001604052806000815250815260200160008152509050806000808481526020019081526020016000206000820151816000015560208201518160010160006101000a81548173ffffffffffffffffffffffffffffffffffffffff021916908373ffffffffffffffffffffffffffffffffffffffff16021790555060408201518160010160146101000a81548169ffffffffffffffffffff021916908360b01c021790555060608201518160020190805190602001906200013992919062000165565b506080820151816003015590505050808062000155906200024e565b91505062000019565b5062000301565b8280546200017390620002cb565b90600052602060002090601f016020900481019282620001975760008555620001e3565b82601f10620001b257805160ff1916838001178555620001e3565b82800160010185558215620001e3579182015b82811115620001e2578251825591602001919060010190620001c5565b5b509050620001f29190620001f6565b5090565b5b8082111562000211576000816000905550600101620001f7565b5090565b7f4e487b7100000000000000000000000000000000000000000000000000000000600052601160045260246000fd5b6000819050919050565b60006200025b8262000244565b91507fffffffffffffffffffffffffffffffffffffffffffffffffffffffffffffffff82141562000291576200029062000215565b5b600182019050919050565b7f4e487b7100000000000000000000000000000000000000000000000000000000600052602260045260246000fd5b60006002820490506001821680620002e457607f821691505b60208210811415620002fb57620002fa6200029c565b5b50919050565b610a6480620003116000396000f3fe608060405234801561001057600080fd5b50600436106100415760003560e01c8063895c21d114610046578063b6a44fd214610062578063eccb3a4f1461007e575b600080fd5b610060600480360381019061005b919061074d565b6100b2565b005b61007c600480360381019061007791906107bc565b610263565b005b610098600480360381019061009391906107fc565b6103d7565b6040516100a9959493929190610910565b60405180910390f35b600080600085815260200190815260200160002090506000816000015414156100da57600080fd5b600075ffffffffffffffffffffffffffffffffffffffffffff19168375ffffffffffffffffffffffffffffffffffffffffffff1916141561011a57600080fd5b600073ffffffffffffffffffffffffffffffffffffffff168160010160009054906101000a900473ffffffffffffffffffffffffffffffffffffffff1673ffffffffffffffffffffffffffffffffffffffff1614806101c857508060010160009054906101000a900473ffffffffffffffffffffffffffffffffffffffff1673ffffffffffffffffffffffffffffffffffffffff163373ffffffffffffffffffffffffffffffffffffffff16145b6101d157600080fd5b60008160010160006101000a81548173ffffffffffffffffffffffffffffffffffffffff021916908373ffffffffffffffffffffffffffffffffffffffff160217905550828160010160146101000a81548169ffffffffffffffffffff021916908360b01c0217905550818160020190805190602001906102539291906104c2565b5043816003018190555050505050565b6000806000848152602001908152602001600020905060008160000154141561028b57600080fd5b600075ffffffffffffffffffffffffffffffffffffffffffff19168275ffffffffffffffffffffffffffffffffffffffffffff19161415801561031057508175ffffffffffffffffffffffffffffffffffffffffffff19168160010160149054906101000a900460b01b75ffffffffffffffffffffffffffffffffffffffffffff1916145b61031957600080fd5b6103e881600301544361032c9190610999565b1161033657600080fd5b338160010160006101000a81548173ffffffffffffffffffffffffffffffffffffffff021916908373ffffffffffffffffffffffffffffffffffffffff16021790555060008160010160146101000a81548169ffffffffffffffffffff021916908360b01c0217905550604051806020016040528060008152508160020190805190602001906103c79291906104c2565b5060008160030181905550505050565b60006020528060005260406000206000915090508060000154908060010160009054906101000a900473ffffffffffffffffffffffffffffffffffffffff16908060010160149054906101000a900460b01b90806002018054610439906109fc565b80601f0160208091040260200160405190810160405280929190818152602001828054610465906109fc565b80156104b25780601f10610487576101008083540402835291602001916104b2565b820191906000526020600020905b81548152906001019060200180831161049557829003601f168201915b5050505050908060030154905085565b8280546104ce906109fc565b90600052602060002090601f0160209004810192826104f05760008555610537565b82601f1061050957805160ff1916838001178555610537565b82800160010185558215610537579182015b8281111561053657825182559160200191906001019061051b565b5b5090506105449190610548565b5090565b5b80821115610561576000816000905550600101610549565b5090565b6000604051905090565b600080fd5b600080fd5b6000819050919050565b61058c81610579565b811461059757600080fd5b50565b6000813590506105a981610583565b92915050565b60007fffffffffffffffffffff0000000000000000000000000000000000000000000082169050919050565b6105e4816105af565b81146105ef57600080fd5b50565b600081359050610601816105db565b92915050565b600080fd5b600080fd5b6000601f19601f8301169050919050565b7f4e487b7100000000000000000000000000000000000000000000000000000000600052604160045260246000fd5b61065a82610611565b810181811067ffffffffffffffff8211171561067957610678610622565b5b80604052505050565b600061068c610565565b90506106988282610651565b919050565b600067ffffffffffffffff8211156106b8576106b7610622565b5b6106c182610611565b9050602081019050919050565b82818337600083830152505050565b60006106f06106eb8461069d565b610682565b90508281526020810184848401111561070c5761070b61060c565b5b6107178482856106ce565b509392505050565b600082601f83011261073457610733610607565b5b81356107448482602086016106dd565b91505092915050565b6000806000606084860312156107665761076561056f565b5b60006107748682870161059a565b9350506020610785868287016105f2565b925050604084013567ffffffffffffffff8111156107a6576107a5610574565b5b6107b28682870161071f565b9150509250925092565b600080604083850312156107d3576107d261056f565b5b60006107e18582860161059a565b92505060206107f2858286016105f2565b9150509250929050565b6000602082840312156108125761081161056f565b5b60006108208482850161059a565b91505092915050565b61083281610579565b82525050565b600073ffffffffffffffffffffffffffffffffffffffff82169050919050565b600061086382610838565b9050919050565b61087381610858565b82525050565b610882816105af565b82525050565b600081519050919050565b600082825260208201905092915050565b60005b838110156108c25780820151818401526020810190506108a7565b838111156108d1576000848401525b50505050565b60006108e282610888565b6108ec8185610893565b93506108fc8185602086016108a4565b61090581610611565b840191505092915050565b600060a0820190506109256000830188610829565b610932602083018761086a565b61093f6040830186610879565b818103606083015261095181856108d7565b90506109606080830184610829565b9695505050505050565b7f4e487b7100000000000000000000000000000000000000000000000000000000600052601160045260246000fd5b60006109a482610579565b91506109af83610579565b9250828210156109c2576109c161096a565b5b828203905092915050565b7f4e487b7100000000000000000000000000000000000000000000000000000000600052602260045260246000fd5b60006002820490506001821680610a1457607f821691505b60208210811415610a2857610a276109cd565b5b5091905056fea264697066735822122082e461ce68011d6a36236181118048709e4e02b8ca3da4dd9d8796b6dd43c73764736f6c634300080a0033",
  "immutableReferences": {},
  "source": "pragma solidity >=0.8.10;\r\n    contract MyPrize {\r\n      struct Prize {\r\n        uint id;\r\n        address owner;        // current owner\r\n        bytes10 geohash;      // current unclaimed location\r\n        string metadata;      // probably a URL pointing to the full metadata\r\n        uint placedAt;        // block count when it was placed\r\n      }\r\n\r\n      mapping (uint => Prize) public prizes;\r\n      // Constructor\r\n      constructor() {\r\n        for (uint i=1; i <= 10; i++) {\r\n            Prize memory prize = Prize({id: i, owner: msg.sender, geohash: \"\", metadata: \"\", placedAt: 0});\r\n            prizes[i] = prize;\r\n        }\r\n      }\r\n\r\n      function placePrize (uint prizeId, bytes10 geohash, string memory _metadata) public {\r\n        Prize storage prize = prizes[prizeId];\r\n        require (prize.id != 0);\r\n        require (geohash != bytes10(\"\"));\r\n        require (prize.owner == address(0) || msg.sender == prize.owner);\r\n        prize.owner = address(0);\r\n        prize.geohash = geohash;\r\n        prize.metadata = _metadata;\r\n        prize.placedAt = block.number;\r\n      }\r\n\r\n      function claimPrize (uint prizeId, bytes10 geohash) public {\r\n        Prize storage prize = prizes[prizeId];\r\n        require (prize.id != 0);\r\n        require (geohash != bytes10(\"\") && prize.geohash == geohash);\r\n        require (block.number - prize.placedAt > 1000);\r\n        prize.owner = msg.sender;\r\n        prize.geohash = \"\";\r\n        prize.metadata = \"\";\r\n        prize.placedAt = 0;\r\n      }\r\n    }",
  "sourcePath": "C:\\Users\\Yeyian PC\\Documents\\webthereum\\contracts\\MyPrize.sol",
  "compiler": {
    "name": "solc",
    "version": "0.8.10+commit.fc410830.Emscripten.clang"
  },
  "schemaVersion": "3.4.3",
  "updatedAt": "2021-12-14T18:20:58.987Z",
  "devdoc": {
    "kind": "dev",
    "methods": {},
    "version": 1
  },
  "userdoc": {
    "kind": "user",
    "methods": {},
    "version": 1
  }
}